S01000006D6C63645F4350552E737265632D
S11300000C942B000C9453000C9453000C94530048
S11300100C9453000C9453000C9453000C94530010
S11300200C9453000C9453000C9453000C94530000
S11300300C9453000C9453000C9453000C945300F0
S11300400C9453000C9453000C9453000C945300E0
S11300500C945300680611241FBECFE5D8E0DEBF20
S1130060CDBF10E0A0E6B0E0EEE3F0E102C0059001
S11300700D92A236B107D9F720E0A2E6B0E001C0A4
S11300801D92AF38B207E1F710E0CBE2D0E004C034
S11300902197FE010E941708CA32D107C9F70E94AE
S11300A0E1050C941D080C940000FC019BE1908375
S11300B08AE1818312829383848321E0258396835A
S11300C0878322E020879187828723E02387948790
S11300D0858724E026879787808B25E0218B928B68
S11300E0838B86E0848B08958F929F92AF92BF9208
S11300F0CF92DF92EF92FF920F931F93CF93DF93F0
S1130100FC01822F90E04C0195948794EC01D595E5
S1130110C795D595C7958C011595079515950795A0
S1130120159507957C01F594E794F594E794F59477
S1130130E794F594E7946C01D594C794D594C79447
S1130140D594C794D594C794D594C7945C010A2CCC
S1130150AB2C000CAA1CBB08000CAA1CBB1C880FEF
S1130160892F881F990B60FF11C0A081B0E0909681
S11301703C91909761E070E0028002C0660F771FA7
S11301800A94E2F7632B90966C9311C0A081B0E0BF
S113019090963C91909761E070E0028002C0660FF7
S11301A0771F0A94E2F76095632390966C9340FF5F
S11301B011C0A381B0E090963C91909741E050E04B
S11301C0058002C0440F551F0A94E2F7432B909612
S11301D04C9311C0A381B0E090963C91909741E07C
S11301E050E0058002C0440F551F0A94E2F7409581
S11301F0432390964C9380FF11C0A289B0E090965F
S11302003C91909781E090E0048802C0880F991F88
S11302100A94E2F7832B90968C9311C0A289B0E0E4
S113022090963C91909781E090E0048802C0880FFA
S1130230991F0A94E2F78095832390968C93A0FEED
S113024011C0A785B0E090963C91909781E090E032
S1130250018802C0880F991F0A94E2F7832B9096B5
S11302608C9311C0A785B0E090963C91909781E063
S113027090E0018802C0880F991F0A94E2F78095E4
S1130280832390968C93C0FE11C0A485B0E0909611
S11302903C91909781E090E0068402C0880F991FFA
S11302A00A94E2F7832B90968C9311C0A485B0E056
S11302B090963C91909781E090E0068402C0880F6C
S11302C0991F0A94E2F78095832390968C93E0FE1D
S11302D011C0A185B0E090963C91909781E090E0A8
S11302E0038402C0880F991F0A94E2F7832B909627
S11302F08C9311C0A185B0E090963C91909781E0D9
S113030090E0038402C0880F991F0A94E2F7809555
S1130310832390968C93A681B0E090963C9190971D
S113032081E090E0AC01008402C0440F551F0A94A0
S1130330E2F7432B90964C93AFECB7E01197F1F7AB
S113034000C00000A681B0E090963C919097008494
S113035002C0880F991F0A94E2F780958323909630
S11303608C938FEC97E00197F1F700C0000000FF39
S113037011C0A289B0E090963C91909781E090E002
S1130380048802C0880F991F0A94E2F7832B909681
S11303908C9311C0A289B0E090963C91909781E033
S11303A090E0048802C0880F991F0A94E2F78095B0
S11303B0832390968C93C0FF11C0A785B0E09096DC
S11303C03C91909781E090E0018802C0880F991FCA
S11303D00A94E2F7832B90968C9311C0A785B0E022
S11303E090963C91909781E090E0018802C0880F3C
S11303F0991F0A94E2F78095832390968C9380FE4C
S113040011C0A485B0E090963C91909781E090E073
S1130410068402C0880F991F0A94E2F7832B9096F2
S11304208C9311C0A485B0E090963C91909781E0A4
S113043090E0068402C0880F991F0A94E2F7809521
S1130440832390968C9320FF11C0A185B0E09096F1
S11304502C91909781E090E0038402C0880F991F4B
S11304600A94E2F7822B90968C9311C0A185B0E098
S113047090962C91909781E090E0038402C0880FBD
S1130480991F0A94E2F78095822390968C93A68113
S1130490B0E090964C91909781E090E09C010084AC
S11304A002C0220F331F0A94E2F7242B90962C9358
S11304B0AFECB7E01197F1F700C00000A681B0E0FF
S11304C090963C919097AC01008402C0440F551F54
S11304D00A94E2F7242F2095232390962C93AFECD3
S11304E0B7E01197F1F700C00000A081B0E090964A
S11304F03C919097AC01028002C0440F551F0A94AE
S1130500E2F7242F2095232390962C93A381B0E027
S113051090963C919097AC01058002C0440F551F02
S11305200A94E2F7242F2095232390962C93A289F2
S1130530B0E090963C919097AC01048802C0440FBF
S1130540551F0A94E2F7242F2095232390962C9389
S1130550A785B0E090963C919097AC01018802C0C9
S1130560440F551F0A94E2F7242F209523239096D5
S11305702C93A485B0E090963C919097AC010684AE
S113058002C0440F551F0A94E2F7242F2095232319
S113059090962C93A185B0E090962C91909703842B
S11305A002C0880F991F0A94E2F7809582239096DF
S11305B08C93DF91CF911F910F91FF90EF90DF907B
S11305C0CF90BF90AF909F908F900895CF93DF937B
S11305D0EC0160938E008FE295E70197F1F700C07C
S11305E00000E985F0E030A181E090E0AC010B84EB
S11305F002C0440F551F0A94E2F7242F20952323A9
S113060020A3EC85F0E030A1AC010E8402C0440FBD
S1130610551F0A94E2F7242F2095232320A3EF8566
S1130620F0E030A1AC01098802C0440F551F0A94C0
S1130630E2F7242F2095232320A3EA89F0E030A1B8
S1130640AC010C8802C0440F551F0A94E2F7242F12
S11306502095232320A3EE81F0E030A1AC0108848F
S113066002C0440F551F0A94E2F7242F2095232338
S113067020A3EA85F0E040A19C010B8402C0220F74
S1130680331F0A94E2F7242B20A3ED85F0E040A168
S11306909C010E8402C0220F331F0A94E2F7242B1C
S11306A020A3E889F0E040A19C01098802C0220F40
S11306B0331F0A94E2F7242B20A3EB89F0E040A136
S11306C09C010C8802C0220F331F0A94E2F7242BEA
S11306D020A3EF81F0E040A19C01088402C0220F16
S11306E0331F0A94E2F7242B20A3E981F0E040A110
S11306F09C010A8002C0220F331F0A94E2F7242BC4
S113070020A3EC81F0E040A19C010D8002C0220FE7
S1130710331F0A94E2F7242B20A3E881F0E030A1F0
S1130720AC010A8002C0440F551F0A94E2F7242F3B
S11307302095232320A3EB81F0E030A1AC010D80B0
S113074002C0440F551F0A94E2F7242F2095232357
S113075020A3EA89F0E030A1AC010C8802C0440F68
S1130760551F0A94E2F7242F2095232320A3EF8515
S1130770F0E030A1AC01098802C0440F551F0A946F
S1130780E2F7242F2095232320A3EC85F0E040A159
S11307909C010E8402C0220F331F0A94E2F7242B1B
S11307A020A3E985F0E030A1AC010B8402C0440F22
S11307B0551F0A94E2F7242F2095232320A3EE81CA
S11307C0F0E040A19C01088402C0220F331F0A9468
S11307D0E2F7242B20A3EFECF7E03197F1F700C008
S11307E00000EE81F0E020A1088402C0880F991F68
S11307F00A94E2F78095822380A38FEC97E0019717
S1130800F1F700C0000028E240E060E0CE010E9461
S11308107400EFECF7E03197F1F700C000002CE032
S113082040E060E0CE010E9474008FEC97E00197F5
S1130830F1F700C0000026E040E060E0CE010E9435
S11308407400EFECF7E03197F1F700C00000DF919E
S1130850CF910895262F40E061E00E94740008952E
S11308600F931F93CF93DF93EB016881662341F0CD
S11308708C012196C8010E942A0469916111FACF62
S1130880DF91CF911F910F9108958F929F92AF9214
S1130890BF92CF92DF92EF92FF920F931F93CF9369
S11308A0DF935C01EB019B01329522952F70232786
S11308B03F702327A7E4B3E00E9408088C01169533
S11308C00795169507951695079520E137E2029F3F
S11308D0C001039F900D129F900D1124C81BD90BCA
S11308E09E01369527953695279536952795A5EC3F
S11308F0B0E20E9408086C01D694C794D694C794B9
S1130900D694C794D694C79428EE33E0C29EC0010F
S1130910C39E900DD29E900D1124C81BD90B9E012D
S11309203695279536952795ABE7B4E10E940808DC
S11309304C019694879424E6289DC001299D900D2E
S11309401124C81BD90B9E01ADECBCEC0E94080815
S11309507C01F694E794F694E794F694E79497016F
S1130960220F331FC701880F991F880F991F880F03
S1130970991F820F931FC81BD90B0115110591F400
S1130980C114D10479F48114910409F047C0E1142D
S1130990F10409F056C02097D9F560E3C5010E941F
S11309A02A0459C001151105C9F4C114D10409F46C
S11309B052C060E36C0DC5010E942A0460E3680D17
S11309C0C5010E942A0460E36E0DC5010E942A0439
S11309D06C2F605DC5010E942A043DC060E3600F76
S11309E0C5010E942A0460E36C0DC5010E942A041B
S11309F060E3680DC5010E942A0460E36E0DC50121
S1130A000E942A046C2F605DC5010E942A0423C041
S1130A106C2F605DC5010E942A041DC060E3680D4F
S1130A20C5010E942A0460E36E0DC5010E942A04D8
S1130A306C2F605DC5010E942A040115110559F04F
S1130A40CDCF60E36E0DC5010E942A046C2F605D5A
S1130A50C5010E942A04DF91CF911F910F91FF904D
S1130A60EF90DF90CF90BF90AF909F908F900895BC
S1130A708F929F92AF92BF92CF92DF92EF92FF92AA
S1130A800F931F93CF93DF938C016A017B01E901DC
S1130A90CB01BA010E94DE064B015C01C8010E9431
S1130AA04504C501B4010E940D079B01AC01C701B7
S1130AB0B6010E947106209729F40E94DE066B019C
S1130AC07C0157C0C130D10559F420E030E040E248
S1130AD051E40E949B070E94DE066B017C0149C021
S1130AE0C230D10559F420E030E048EC52E40E94D1
S1130AF09B070E94DE066B017C013BC0C330D1051D
S1130B0059F420E030E04AE754E40E949B070E9435
S1130B10DE066B017C012DC0C430D10559F420E000
S1130B2030E44CE156E40E949B070E94DE066B0110
S1130B307C011FC0C530D10559F420E030E543ECF9
S1130B4057E40E949B070E94DE066B017C0111C0E2
S1130B50269759F420E034E244E759E40E949B07C5
S1130B600E94DE066B017C0104C00E94DE066B015C
S1130B707C0160E670E0C8010E943004B601C8013F
S1130B800E944504DF91CF911F910F91FF90EF9048
S1130B90DF90CF90BF90AF909F908F900895413099
S1130BA0510511F4605C7F4F262F206840E060E01F
S1130BB00E9474008FEC97E00197F1F700C00000E9
S1130BC0089580E38ABB8BBBE8E7F0E0D5E1D083EE
S1130BD0C4E1C1831282D383C483DD24D394D58238
S1130BE0D683C78382E08087D187C2870F2EF3E044
S1130BF0EF2EF02DE386D487C5876894FF24F2F89E
S1130C00F686D787C08B05E0018BD28BC38B16E0A9
S1130C10148B60E170E0CF010E94E6022FEF89E6B9
S1130C2098E1215080409040E1F700C00000E2E6E6
S1130C30F0E0D083C1831282D383C483D582D68368
S1130C40C78387E08087D187C287E386D487C58737
S1130C50F686D787C08B018BD28BC38B148B60E154
S1130C6070E0CF010E94E6028FEC97E00197F1F764
S1130C7000C0000028EA40E060E088E790E00E94BD
S1130C80740040E050E060E070E088E790E00E948B
S1130C90CF0525E030E04FE055ED6EE376E488E7DC
S1130CA090E00E94380541E050E061E070E088E7A0
S1130CB090E00E94CF0561E17CE588E790E00E9426
S1130CC045048FE39CE90197F1F700C00000D9CFF8
S1130CD088E790E00E94550082E690E00E9455006B
S1130CE008955058BB27AA270E9489060C946107CF
S1130CF00E94530738F00E945A0720F039F49F3FAE
S1130D0019F426F40C9450070EF4E095E7FB0C94C8
S1130D104A07E92F0E94720758F3BA17620773074C
S1130D208407950720F079F4A6F50C9494070EF443
S1130D30E0950B2EBA2FA02D0B01B90190010C01E7
S1130D40CA01A0011124FF27591B99F0593F50F4FF
S1130D50503E68F11A16F040A22F232F342F442757
S1130D60585FF3CF469537952795A795F04053954F
S1130D70C9F77EF41F16BA0B620B730B840BBAF01F
S1130D809150A1F0FF0FBB1F661F771F881FC2F78A
S1130D900EC0BA0F621F731F841F48F4879577959E
S1130DA06795B795F7959E3F08F0B0CF9395880F58
S1130DB008F09927EE0F9795879508950E947A0772
S1130DC088F09F5798F0B92F9927B751B0F0E1F008
S1130DD0660F771F881F991F1AF0BA95C9F714C0B8
S1130DE0B13091F00E949407B1E008950C949407F7
S1130DF0672F782F8827B85F39F0B93FCCF38695F1
S1130E0077956795B395D9F73EF49095809570954D
S1130E1061957F4F8F4F9F4F0895E89409C097FBCA
S1130E203EF490958095709561957F4F8F4F9F4FBD
S1130E309923A9F0F92F96E9BB279395F695879501
S1130E4077956795B795F111F8CFFAF4BB0F11F4C4
S1130E5060FF1BC06F5F7F4F8F4F9F4F16C088236B
S1130E6011F096E911C0772321F09EE8872F762FA1
S1130E7005C0662371F096E8862F70E060E02AF0E2
S1130E809A95660F771F881FDAF7880F96958795CE
S1130E9097F9089597F99F6780E870E060E00895F6
S1130EA09FEF80EC089500240A941616170618067E
S1130EB00906089500240A9412161306140605065A
S1130EC00895092E0394000C11F4882352F0BB0FEB
S1130ED040F4BF2B11F460FF04C06F5F7F4F8F4F4E
S1130EE09F4F089557FD9058440F551F59F05F3F89
S1130EF071F04795880F97FB991F61F09F3F79F038
S1130F0087950895121613061406551FF2CF4695B9
S1130F10F1DF08C0161617061806991FF1CF86953B
S1130F207105610508940895E894BB27662777271F
S1130F30CB0197F908950E94AE070C9461070E94B3
S1130F40530738F00E945A0720F0952311F00C94AF
S1130F504A070C94500711240C9495070E947207B9
S1130F6070F3959FC1F3950F50E0551F629FF001F8
S1130F70729FBB27F00DB11D639FAA27F00DB11D11
S1130F80AA1F649F6627B00DA11D661F829F22279A
S1130F90B00DA11D621F739FB00DA11D621F839F21
S1130FA0A00D611D221F749F3327A00D611D231FF7
S1130FB0849F600D211D822F762F6A2F11249F5745
S1130FC050409AF0F1F088234AF0EE0FFF1FBB1F48
S1130FD0661F771F881F91505040A9F79E3F510507
S1130FE080F00C944A070C9495075F3FE4F3983E15
S1130FF0D4F3869577956795B795F795E7959F5FB1
S1131000C1F7FE2B880F911D9695879597F9089542
S1131010A29FB001B39FC001A39F700D811D112435
S1131020911DB29F700D811D1124911D0895EE0F25
S1111030FF1F0590F491E02D0994F894FFCF72
S105103E2E007E
S9030000FC
