S01000006D6C63645F4350552E737265632D
S11300000C942B000C9448000C9448000C94480069
S11300100C9448000C9448000C9448000C9448003C
S11300200C9448000C9448000C9448000C9448002C
S11300300C9448000C9448000C9448000C9448001C
S11300400C9448000C9448000C9448000C9448000C
S11300500C944800460411241FBECFE5D8E0DEBF4F
S1130060CDBF20E0A0E6B0E001C01D92A637B207E4
S1130070E1F710E0CBE2D0E004C02197FE010E943A
S11300804B04CA32D107C9F70E941D040C945104D1
S11300900C940000FC019BE190838AE1818312822D
S11300A09383848321E025839683878322E02087BA
S11300B09187828723E023879487858724E0268796
S11300C09787808B25E0218B928B838B86E0848BB2
S11300D008958F929F92AF92BF92CF92DF92EF9248
S11300E0FF920F931F93CF93DF93FC01822F90E035
S11300F04C0195948794EC01D595C795D595C795F2
S11301008C011595079515950795159507957C010F
S1130110F594E794F594E794F594E794F594E794CB
S11301206C01D594C794D594C794D594C794D594A9
S1130130C794D594C7945C010A2CAB2C000CAA1C60
S1130140BB08000CAA1CBB1C880F892F881F990BA5
S113015060FF11C0A081B0E090963C91909761E05F
S113016070E0028002C0660F771F0A94E2F7632BE7
S113017090966C9311C0A081B0E090963C919097BA
S113018061E070E0028002C0660F771F0A94E2F714
S11301906095632390966C9340FF11C0A381B0E0F7
S11301A090963C91909741E050E0058002C0440F46
S11301B0551F0A94E2F7432B90964C9311C0A381E8
S11301C0B0E090963C91909741E050E0058002C0E9
S11301D0440F551F0A94E2F74095432390964C939D
S11301E080FF11C0A289B0E090963C91909781E085
S11301F090E0048802C0880F991F0A94E2F7832BC9
S113020090968C9311C0A289B0E090963C919097FF
S113021081E090E0048802C0880F991F0A94E2F7F5
S11302208095832390968C93A0FE11C0A785B0E09F
S113023090963C91909781E090E0018802C0880FED
S1130240991F0A94E2F7832B90968C9311C0A7858B
S1130250B0E090963C91909781E090E0018802C0D4
S1130260880F991F0A94E2F78095832390968C93C4
S1130270C0FE11C0A485B0E090963C91909781E0B7
S113028090E0068402C0880F991F0A94E2F7832B3A
S113029090968C9311C0A485B0E090963C91909771
S11302A081E090E0068402C0880F991F0A94E2F767
S11302B08095832390968C93E0FE11C0A185B0E0D5
S11302C090963C91909781E090E0038402C0880F5F
S11302D0991F0A94E2F7832B90968C9311C0A18501
S11302E0B0E090963C91909781E090E0038402C046
S11302F0880F991F0A94E2F78095832390968C9334
S1130300A681B0E090963C91909781E090E0AC019A
S1130310008402C0440F551F0A94E2F7432B9096C1
S11303204C93AFECB7E01197F1F700C00000A68141
S1130330B0E090963C919097008402C0880F991F7A
S11303400A94E2F78095832390968C938FEC97E040
S11303500197F1F700C0000000FF11C0A289B0E0CE
S113036090963C91909781E090E0048802C0880FB9
S1130370991F0A94E2F7832B90968C9311C0A2895B
S1130380B0E090963C91909781E090E0048802C0A0
S1130390880F991F0A94E2F78095832390968C9393
S11303A0C0FF11C0A785B0E090963C91909781E082
S11303B090E0018802C0880F991F0A94E2F7832B0A
S11303C090968C9311C0A785B0E090963C9190973D
S11303D081E090E0018802C0880F991F0A94E2F737
S11303E08095832390968C9380FE11C0A485B0E001
S11303F090963C91909781E090E0068402C0880F2B
S1130400991F0A94E2F7832B90968C9311C0A485CC
S1130410B0E090963C91909781E090E0068402C011
S1130420880F991F0A94E2F78095832390968C9302
S113043020FF11C0A185B0E090962C91909781E0A7
S113044090E0038402C0880F991F0A94E2F7822B7C
S113045090968C9311C0A185B0E090962C919097C2
S113046081E090E0038402C0880F991F0A94E2F7A8
S11304708095822390968C93A681B0E090964C91BF
S1130480909781E090E09C01008402C0220F331F0A
S11304900A94E2F7242B90962C93AFECB7E01197D3
S11304A0F1F700C00000A681B0E090963C919097CF
S11304B0AC01008402C0440F551F0A94E2F7242FB4
S11304C02095232390962C93AFECB7E01197F1F786
S11304D000C00000A081B0E090963C919097AC01E0
S11304E0028002C0440F551F0A94E2F7242F20957E
S11304F0232390962C93A381B0E090963C919097FF
S1130500AC01058002C0440F551F0A94E2F7242F62
S11305102095232390962C93A289B0E090963C9149
S11305209097AC01048802C0440F551F0A94E2F767
S1130530242F2095232390962C93A785B0E09096A2
S11305403C919097AC01018802C0440F551F0A9456
S1130550E2F7242F2095232390962C93A485B0E0D2
S113056090963C919097AC01068402C0440F551FAD
S11305700A94E2F7242F2095232390962C93A185A7
S1130580B0E090962C919097038402C0880F991F35
S11305900A94E2F78095822390968C93DF91CF9111
S11305A01F910F91FF90EF90DF90CF90BF90AF908D
S11305B09F908F900895CF93DF93EC018FE295E79E
S11305C00197F1F700C00000E985F0E030A181E077
S11305D090E0AC010B8402C0440F551F0A94E2F76B
S11305E0242F2095232320A3EC85F0E030A1AC0137
S11305F00E8402C0440F551F0A94E2F7242F20955D
S1130600232320A3EF85F0E030A1AC01098802C0C8
S1130610440F551F0A94E2F7242F2095232320A387
S1130620EA89F0E030A1AC010C8802C0440F551FE8
S11306300A94E2F7242F2095232320A3EE81F0E0EF
S113064030A1AC01088402C0440F551F0A94E2F79C
S1130650242F2095232320A3EA85F0E040A19C01C8
S11306600B8402C0220F331F0A94E2F7242B20A329
S1130670ED85F0E040A19C010E8402C0220F331FDF
S11306800A94E2F7242B20A3E889F0E040A19C011E
S1130690098802C0220F331F0A94E2F7242B20A3F7
S11306A0EB89F0E040A19C010C8802C0220F331FAB
S11306B00A94E2F7242B20A3EF81F0E040A19C01EF
S11306C0088402C0220F331F0A94E2F7242B20A3CC
S11306D0E981F0E040A19C010A8002C0220F331F8F
S11306E00A94E2F7242B20A3EC81F0E040A19C01C2
S11306F00D8002C0220F331F0A94E2F7242B20A39B
S1130700E881F0E030A1AC010A8002C0440F551F1B
S11307100A94E2F7242F2095232320A3EB81F0E011
S113072030A1AC010D8002C0440F551F0A94E2F7BA
S1130730242F2095232320A3EA89F0E030A1AC01E3
S11307400C8802C0440F551F0A94E2F7242F209509
S1130750232320A3EF85F0E030A1AC01098802C077
S1130760440F551F0A94E2F7242F2095232320A336
S1130770EC85F0E040A19C010E8402C0220F331FDF
S11307800A94E2F7242B20A3E985F0E030A1AC0120
S11307900B8402C0440F551F0A94E2F7242F2095BE
S11307A0232320A3EE81F0E040A19C01088402C031
S11307B0220F331F0A94E2F7242B20A3EFECF7E077
S11307C03197F1F700C00000EE81F0E020A1088429
S11307D002C0880F991F0A94E2F78095822380A3B0
S11307E08FEC97E00197F1F700C0000020E240E0B1
S11307F060E0CE010E946900EFECF7E03197F1F779
S113080000C000002CE040E060E0CE010E946900DE
S11308108FEC97E00197F1F700C0000026E040E07C
S113082060E0CE010E946900EFECF7E03197F1F748
S113083000C00000DF91CF910895E0E6F0E095E17B
S1130840908384E1818312829383848321E02583CE
S11308509683878322E020879187828723E02387FA
S11308609487858724E026879787808B25E0218BD2
S1130870928B838B86E0848BCF010E94DB028FEC0A
S113088097E00197F1F700C00000FFCF80E690E009
S11308900E944A000895EE0FFF1F0590F491E02D89
S10908A00994F894FFCF57
S9030000FC
