:100000000C942B000C9448000C9448000C9448006D
:100010000C9448000C9448000C9448000C94480040
:100020000C9448000C9448000C9448000C94480030
:100030000C9448000C9448000C9448000C94480020
:100040000C9448000C9448000C9448000C94480010
:100050000C944800000311241FBECFE5D8E0DEBF9A
:10006000CDBF20E0A0E6B0E001C01D92A637B207E8
:10007000E1F710E0CBE2D0E004C02197FE010E943E
:100080000503CA32D107C9F70E94DB020C940B03A7
:100090000C940000FC019BE190838AE18183128231
:1000A0009383848321E025839683878322E02087BE
:1000B0009187828723E023879487858724E026879A
:1000C0009787808B25E0218B928B838B86E0848BB6
:1000D0000895FC018FE295E70197F1F700C0000059
:1000E000A185B0E090963C91909781E090E0AC01C2
:1000F000038402C0440F551F0A94E2F7242F209571
:10010000232390962C93A485B0E090963C919097F1
:10011000AC01068402C0440F551F0A94E2F7242F55
:100120002095232390962C93A785B0E090963C9140
:100130009097AC01018802C0440F551F0A94E2F762
:10014000242F2095232390962C93A289B0E090969B
:100150003C919097AC01048802C0440F551F0A944B
:10016000E2F7242F2095232390962C93A681B0E0CC
:1001700090963C919097AC01008402C0440F551FAB
:100180000A94E2F7242F2095232390962C93A2859E
:10019000B0E090964C9190979C01038402C0220F8E
:1001A000331F0A94E2F7242B90962C93A585B0E098
:1001B00090964C9190979C01068402C0220F331FA9
:1001C0000A94E2F7242B90962C93A089B0E09096A5
:1001D0004C9190979C01018802C0220F331F0A9412
:1001E000E2F7242B90962C93A389B0E090964C9143
:1001F00090979C01048802C0220F331F0A94E2F7F3
:10020000242B90962C93A781B0E090964C919097D8
:100210009C01008402C0220F331F0A94E2F7242BB2
:1002200090962C93A181B0E090964C9190979C0170
:10023000028002C0220F331F0A94E2F7242B90960B
:100240002C93A481B0E090964C9190979C010580EE
:1002500002C0220F331F0A94E2F7242B90962C93AE
:10026000A185B0E090964C9190979C01038402C0C8
:10027000220F331F0A94E2F7242B90962C93A48527
:10028000B0E090964C9190979C01068402C0220F9A
:10029000331F0A94E2F7242B90962C93A681B0E0AA
:1002A00090964C9190979C01008402C0220F331FBE
:1002B0000A94E2F7242B90962C93A785B0E09096B1
:1002C0003C919097AC01018802C0440F551F0A94DD
:1002D000E2F7242F2095232390962C93A289B0E057
:1002E00090963C919097AC01048802C0440F551F32
:1002F0000A94E2F7242F2095232390962C93A08133
:10030000B0E090963C919097AC01028002C0440FFF
:10031000551F0A94E2F7242F2095232390962C93BF
:10032000A381B0E090963C919097AC01058002C00B
:10033000440F551F0A94E2F7242F2095232390960B
:100340002C93AFECB7E01197F1F700C00000A68145
:10035000B0E090963C919097AC01008402C0440FAD
:10036000551F0A94E2F7242F2095232390962C936F
:10037000AFECB7E01197F1F700C00000A185B0E045
:1003800090964C9190979C01038402C0220F331FDA
:100390000A94E2F7242B90962C93A485B0E09096D3
:1003A0004C9190979C01068402C0220F331F0A943F
:1003B000E2F7242B90962C93A785B0E090963C9181
:1003C0009097AC01018802C0440F551F0A94E2F7D0
:1003D000242F2095232390962C93A289B0E0909609
:1003E0003C919097AC01048802C0440F551F0A94B9
:1003F000E2F7242F2095232390962C93A681B0E03A
:1004000090964C9190979C01008402C0220F331F5C
:100410000A94E2F7242B90962C93A081B0E090965A
:100420003C919097AC01028002C0440F551F0A9482
:10043000E2F7242F2095232390962C93A381B0E0FC
:1004400090963C919097AC01058002C0440F551FD7
:100450000A94E2F7242F2095232390962C93AFEC57
:10046000B7E01197F1F700C00000A681B0E09096C8
:100470003C919097AC01008402C0440F551F0A9430
:10048000E2F7242F2095232390962C93AFECB7E02E
:100490001197F1F700C00000A185B0E090963C9163
:1004A0009097AC01038402C0440F551F0A94E2F7F1
:1004B000242F2095232390962C93A485B0E090962A
:1004C0004C9190979C01068402C0220F331F0A941E
:1004D000E2F7242B90962C93A785B0E090963C9160
:1004E0009097AC01018802C0440F551F0A94E2F7AF
:1004F000242F2095232390962C93A289B0E09096E8
:100500003C919097AC01048802C0440F551F0A9497
:10051000E2F7242F2095232390962C93A681B0E018
:1005200090964C9190979C01008402C0220F331F3B
:100530000A94E2F7242B90962C93A081B0E0909639
:100540003C919097AC01028002C0440F551F0A9461
:10055000E2F7242F2095232390962C93A381B0E0DB
:1005600090963C919097AC01058002C0440F551FB6
:100570000A94E2F7242F2095232390962C93AFEC36
:10058000B7E01197F1F700C00000A681B0E09096A7
:100590002C919097008402C0880F991F0A94E2F76B
:1005A0008095822390968C938FEC97E00197F1F7DA
:1005B00000C000000895E0E6F0E09BE190838AE14E
:1005C000818312829383848321E0258396838783AA
:1005D00027E020879187828723E023879487858778
:1005E00024E026879787808B25E0218B928B838B55
:1005F00086E0848BCF010E94690080E090E008953E
:1006000080E690E00E944A000895EE0FFF1F0590DB
:0A061000F491E02D0994F894FFCF57
:00000001FF
