S01000006D6C63645F4350552E737265632D
S11300000C942B000C9448000C9448000C94480069
S11300100C9448000C9448000C9448000C9448003C
S11300200C9448000C9448000C9448000C9448002C
S11300300C9448000C9448000C9448000C9448001C
S11300400C9448000C9448000C9448000C9448000C
S11300500C944800920511241FBECFE5D8E0DEBF02
S1130060CDBF20E0A0E6B0E001C01D92AF38B207DA
S1130070E1F710E0CBE2D0E004C02197FE010E943A
S1130080AA05CA32D107C9F70E941C050C94B00511
S11300900C940000FC019BE190838AE1818312822D
S11300A09383848321E025839683878322E02087BA
S11300B09187828723E023879487858724E0268796
S11300C09787808B25E0218B928B838B86E0848BB2
S11300D008958F929F92AF92BF92CF92DF92EF9248
S11300E0FF920F931F93CF93DF93FC01822F90E035
S11300F04C0195948794EC01D595C795D595C795F2
S11301008C011595079515950795159507957C010F
S1130110F594E794F594E794F594E794F594E794CB
S11301206C01D594C794D594C794D594C794D594A9
S1130130C794D594C7945C010A2CAB2C000CAA1C60
S1130140BB08000CAA1CBB1C880F892F881F990BA5
S113015060FF11C0A081B0E090963C91909761E05F
S113016070E0028002C0660F771F0A94E2F7632BE7
S113017090966C9311C0A081B0E090963C919097BA
S113018061E070E0028002C0660F771F0A94E2F714
S11301906095632390966C9340FF11C0A381B0E0F7
S11301A090963C91909741E050E0058002C0440F46
S11301B0551F0A94E2F7432B90964C9311C0A381E8
S11301C0B0E090963C91909741E050E0058002C0E9
S11301D0440F551F0A94E2F74095432390964C939D
S11301E080FF11C0A289B0E090963C91909781E085
S11301F090E0048802C0880F991F0A94E2F7832BC9
S113020090968C9311C0A289B0E090963C919097FF
S113021081E090E0048802C0880F991F0A94E2F7F5
S11302208095832390968C93A0FE11C0A785B0E09F
S113023090963C91909781E090E0018802C0880FED
S1130240991F0A94E2F7832B90968C9311C0A7858B
S1130250B0E090963C91909781E090E0018802C0D4
S1130260880F991F0A94E2F78095832390968C93C4
S1130270C0FE11C0A485B0E090963C91909781E0B7
S113028090E0068402C0880F991F0A94E2F7832B3A
S113029090968C9311C0A485B0E090963C91909771
S11302A081E090E0068402C0880F991F0A94E2F767
S11302B08095832390968C93E0FE11C0A185B0E0D5
S11302C090963C91909781E090E0038402C0880F5F
S11302D0991F0A94E2F7832B90968C9311C0A18501
S11302E0B0E090963C91909781E090E0038402C046
S11302F0880F991F0A94E2F78095832390968C9334
S1130300A681B0E090963C91909781E090E0AC019A
S1130310008402C0440F551F0A94E2F7432B9096C1
S11303204C93AFECB7E01197F1F700C00000A68141
S1130330B0E090963C919097008402C0880F991F7A
S11303400A94E2F78095832390968C938FEC97E040
S11303500197F1F700C0000000FF11C0A289B0E0CE
S113036090963C91909781E090E0048802C0880FB9
S1130370991F0A94E2F7832B90968C9311C0A2895B
S1130380B0E090963C91909781E090E0048802C0A0
S1130390880F991F0A94E2F78095832390968C9393
S11303A0C0FF11C0A785B0E090963C91909781E082
S11303B090E0018802C0880F991F0A94E2F7832B0A
S11303C090968C9311C0A785B0E090963C9190973D
S11303D081E090E0018802C0880F991F0A94E2F737
S11303E08095832390968C9380FE11C0A485B0E001
S11303F090963C91909781E090E0068402C0880F2B
S1130400991F0A94E2F7832B90968C9311C0A485CC
S1130410B0E090963C91909781E090E0068402C011
S1130420880F991F0A94E2F78095832390968C9302
S113043020FF11C0A185B0E090962C91909781E0A7
S113044090E0038402C0880F991F0A94E2F7822B7C
S113045090968C9311C0A185B0E090962C919097C2
S113046081E090E0038402C0880F991F0A94E2F7A8
S11304708095822390968C93A681B0E090964C91BF
S1130480909781E090E09C01008402C0220F331F0A
S11304900A94E2F7242B90962C93AFECB7E01197D3
S11304A0F1F700C00000A681B0E090963C919097CF
S11304B0AC01008402C0440F551F0A94E2F7242FB4
S11304C02095232390962C93AFECB7E01197F1F786
S11304D000C00000A081B0E090963C919097AC01E0
S11304E0028002C0440F551F0A94E2F7242F20957E
S11304F0232390962C93A381B0E090963C919097FF
S1130500AC01058002C0440F551F0A94E2F7242F62
S11305102095232390962C93A289B0E090963C9149
S11305209097AC01048802C0440F551F0A94E2F767
S1130530242F2095232390962C93A785B0E09096A2
S11305403C919097AC01018802C0440F551F0A9456
S1130550E2F7242F2095232390962C93A485B0E0D2
S113056090963C919097AC01068402C0440F551FAD
S11305700A94E2F7242F2095232390962C93A185A7
S1130580B0E090962C919097038402C0880F991F35
S11305900A94E2F78095822390968C93DF91CF9111
S11305A01F910F91FF90EF90DF90CF90BF90AF908D
S11305B09F908F900895CF93DF93EC0140938E002A
S11305C060938D0040938C008FE295E70197F1F7DB
S11305D000C00000E985F0E030A181E090E0AC01CA
S11305E00B8402C0440F551F0A94E2F7242F209570
S11305F0232320A3EC85F0E030A1AC010E8402C0DB
S1130600440F551F0A94E2F7242F2095232320A397
S1130610EF85F0E030A1AC01098802C0440F551FFA
S11306200A94E2F7242F2095232320A3EA89F0E0FB
S113063030A1AC010C8802C0440F551F0A94E2F7A4
S1130640242F2095232320A3EE81F0E030A1AC01D8
S1130650088402C0440F551F0A94E2F7242F209502
S1130660232320A3EA85F0E040A19C010B8402C06F
S1130670220F331F0A94E2F7242B20A3ED85F0E028
S113068040A19C010E8402C0220F331F0A94E2F79A
S1130690242B20A3E889F0E040A19C01098802C032
S11306A0220F331F0A94E2F7242B20A3EB89F0E0F6
S11306B040A19C010C8802C0220F331F0A94E2F768
S11306C0242B20A3EF81F0E040A19C01088402C008
S11306D0220F331F0A94E2F7242B20A3E981F0E0D0
S11306E040A19C010A8002C0220F331F0A94E2F742
S11306F0242B20A3EC81F0E040A19C010D8002C0DA
S1130700220F331F0A94E2F7242B20A3E881F0E0A0
S113071030A1AC010A8002C0440F551F0A94E2F7CD
S1130720242F2095232320A3EB81F0E030A1AC01FA
S11307300D8002C0440F551F0A94E2F7242F209520
S1130740232320A3EA89F0E030A1AC010C8802C085
S1130750440F551F0A94E2F7242F2095232320A346
S1130760EF85F0E030A1AC01098802C0440F551FA9
S11307700A94E2F7242F2095232320A3EC85F0E0AC
S113078040A19C010E8402C0220F331F0A94E2F799
S1130790242B20A3E985F0E030A1AC010B8402C036
S11307A0440F551F0A94E2F7242F2095232320A3F6
S11307B0EE81F0E040A19C01088402C0220F331FA7
S11307C00A94E2F7242B20A3EFECF7E03197F1F73A
S11307D000C00000EE81F0E020A1088402C0880F70
S11307E0991F0A94E2F78095822380A38FEC97E007
S11307F00197F1F700C0000020E240E060E0CE0184
S11308000E946900EFECF7E03197F1F700C00000B7
S11308102CE040E060E0CE010E9469008FEC97E09C
S11308200197F1F700C0000026E040E060E0CE014F
S11308300E946900EFECF7E03197F1F700C0000087
S1130840DF91CF910895262F40E061E00E94690076
S113085008958F929F92AF92BF92CF92DF92EF92C0
S1130860FF920F931F93CF93DF935C01EB019B01E6
S1130870329522952F7023273F702327A7E4B3E0F6
S11308800E949B058C01169507951695079516955C
S1130890079520E137E2029FC001039F900D129F4C
S11308A0900D1124C81BD90B9E01369527953695BA
S11308B0279536952795A5ECB0E20E949B056C011F
S11308C0D694C794D694C794D694C794D694C79410
S11308D028EE33E0C29EC001C39E900DD29E900DBF
S11308E01124C81BD90B9E0136952795369527955B
S11308F0ABE7B4E10E949B054C019694879424E6EF
S1130900289DC001299D900D1124C81BD90B9E015F
S1130910ADECBCEC0E949B057C01F694E794F69444
S1130920E794F694E7949701220F331FC701880FC9
S1130930991F880F991F880F991F820F931FC81B37
S1130940D90B0115110591F4C114D10479F4811462
S1130950910409F047C0E114F10409F056C020974E
S1130960D9F560E3C5010E94230459C0011511059E
S1130970C9F4C114D10409F452C060E36C0DC5017B
S11309800E94230460E3680DC5010E94230460E310
S11309906E0DC5010E9423046C2F605DC5010E9489
S11309A023043DC060E3600FC5010E94230460E39B
S11309B06C0DC5010E94230460E3680DC5010E940B
S11309C0230460E36E0DC5010E9423046C2F605D57
S11309D0C5010E94230423C06C2F605DC5010E94E1
S11309E023041DC060E3680DC5010E94230460E375
S11309F06E0DC5010E9423046C2F605DC5010E9429
S1130A0023040115110559F0CDCF60E36E0DC50126
S1130A100E9423046C2F605DC5010E942304DF91B2
S1130A20CF911F910F91FF90EF90DF90CF90BF90E7
S1130A30AF909F908F90089580E38ABB8BBBE6E7CD
S1130A40F0E0D5E1D083C4E1C1831282D383C483AF
S1130A50DD24D394D582D683C78382E08087D1876F
S1130A60C2870F2EF3E0EF2EF02DE386D487C587DF
S1130A706894FF24F2F8F686D787C08B05E0018BD3
S1130A80D28BC38B16E0148B42E050E060E170E03F
S1130A90CF010E94DB022FEF89E698E121508040CC
S1130AA09040E1F700C00000E0E6F0E0D083C183AD
S1130AB01282D383C483D582D683C78387E0808799
S1130AC0D187C287E386D487C587F686D787C08B4C
S1130AD0018BD28BC38B148B42E050E060E170E059
S1130AE0CF010E94DB028FEC97E00197F1F700C081
S1130AF0000028EA40E060E086E790E00E94690098
S1130B00C0E0D0E0BE0186E790E00E9429049FEF98
S1130B1020E782E0915020408040E1F700C00000CF
S1130B202196F0CF86E790E00E944A0080E690E0AC
S1130B300E944A000895A29FB001B39FC001A39FE1
S1130B40700D811D1124911DB29F700D811D112402
S1130B50911D0895EE0FFF1F0590F491E02D099467
S1070B60F894FFCF33
S9030000FC
