S01000006D6C63645F4350552E737265632D
S11300000C942B000C9453000C9453000C94530048
S11300100C9453000C9453000C9453000C94530010
S11300200C9453000C9453000C9453000C94530000
S11300300C9453000C9453000C9453000C945300F0
S11300400C9453000C9453000C9453000C945300E0
S11300500C945300C70711241FBECFE5D8E0DEBFC0
S1130060CDBF10E0A0E6B0E0E4E7F2E102C0059005
S11300700D92A236B107D9F720E0A2E6B0E001C0A4
S11300801D92AF38B207E1F710E0CBE2D0E004C034
S11300902197FE010E943209CA32D107C9F70E9492
S11300A040070C9438090C940000FC019BE19083F8
S11300B08AE1818312829383848321E0258396835A
S11300C0878322E020879187828723E02387948790
S11300D0858724E026879787808B25E0218B928B68
S11300E0838B86E0848B08958F929F92AF92BF9208
S11300F0CF92DF92EF92FF920F931F93CF93DF93F0
S1130100FC01822F90E04C0195948794EC01D595E5
S1130110C795D595C7958C011595079515950795A0
S1130120159507957C01F594E794F594E794F59477
S1130130E794F594E7946C01D594C794D594C79447
S1130140D594C794D594C794D594C7945C010A2CCC
S1130150AB2C000CAA1CBB08000CAA1CBB1C880FEF
S1130160892F881F990B60FF11C0A081B0E0909681
S11301703C91909761E070E0028002C0660F771FA7
S11301800A94E2F7632B90966C9311C0A081B0E0BF
S113019090963C91909761E070E0028002C0660FF7
S11301A0771F0A94E2F76095632390966C9340FF5F
S11301B011C0A381B0E090963C91909741E050E04B
S11301C0058002C0440F551F0A94E2F7432B909612
S11301D04C9311C0A381B0E090963C91909741E07C
S11301E050E0058002C0440F551F0A94E2F7409581
S11301F0432390964C9380FF11C0A289B0E090965F
S11302003C91909781E090E0048802C0880F991F88
S11302100A94E2F7832B90968C9311C0A289B0E0E4
S113022090963C91909781E090E0048802C0880FFA
S1130230991F0A94E2F78095832390968C93A0FEED
S113024011C0A785B0E090963C91909781E090E032
S1130250018802C0880F991F0A94E2F7832B9096B5
S11302608C9311C0A785B0E090963C91909781E063
S113027090E0018802C0880F991F0A94E2F78095E4
S1130280832390968C93C0FE11C0A485B0E0909611
S11302903C91909781E090E0068402C0880F991FFA
S11302A00A94E2F7832B90968C9311C0A485B0E056
S11302B090963C91909781E090E0068402C0880F6C
S11302C0991F0A94E2F78095832390968C93E0FE1D
S11302D011C0A185B0E090963C91909781E090E0A8
S11302E0038402C0880F991F0A94E2F7832B909627
S11302F08C9311C0A185B0E090963C91909781E0D9
S113030090E0038402C0880F991F0A94E2F7809555
S1130310832390968C93A681B0E090963C9190971D
S113032081E090E0AC01008402C0440F551F0A94A0
S1130330E2F7432B90964C93AFECB7E01197F1F7AB
S113034000C00000A681B0E090963C919097008494
S113035002C0880F991F0A94E2F780958323909630
S11303608C938FEC97E00197F1F700C0000000FF39
S113037011C0A289B0E090963C91909781E090E002
S1130380048802C0880F991F0A94E2F7832B909681
S11303908C9311C0A289B0E090963C91909781E033
S11303A090E0048802C0880F991F0A94E2F78095B0
S11303B0832390968C93C0FF11C0A785B0E09096DC
S11303C03C91909781E090E0018802C0880F991FCA
S11303D00A94E2F7832B90968C9311C0A785B0E022
S11303E090963C91909781E090E0018802C0880F3C
S11303F0991F0A94E2F78095832390968C9380FE4C
S113040011C0A485B0E090963C91909781E090E073
S1130410068402C0880F991F0A94E2F7832B9096F2
S11304208C9311C0A485B0E090963C91909781E0A4
S113043090E0068402C0880F991F0A94E2F7809521
S1130440832390968C9320FF11C0A185B0E09096F1
S11304502C91909781E090E0038402C0880F991F4B
S11304600A94E2F7822B90968C9311C0A185B0E098
S113047090962C91909781E090E0038402C0880FBD
S1130480991F0A94E2F78095822390968C93A68113
S1130490B0E090964C91909781E090E09C010084AC
S11304A002C0220F331F0A94E2F7242B90962C9358
S11304B0AFECB7E01197F1F700C00000A681B0E0FF
S11304C090963C919097AC01008402C0440F551F54
S11304D00A94E2F7242F2095232390962C93AFECD3
S11304E0B7E01197F1F700C00000A081B0E090964A
S11304F03C919097AC01028002C0440F551F0A94AE
S1130500E2F7242F2095232390962C93A381B0E027
S113051090963C919097AC01058002C0440F551F02
S11305200A94E2F7242F2095232390962C93A289F2
S1130530B0E090963C919097AC01048802C0440FBF
S1130540551F0A94E2F7242F2095232390962C9389
S1130550A785B0E090963C919097AC01018802C0C9
S1130560440F551F0A94E2F7242F209523239096D5
S11305702C93A485B0E090963C919097AC010684AE
S113058002C0440F551F0A94E2F7242F2095232319
S113059090962C93A185B0E090962C91909703842B
S11305A002C0880F991F0A94E2F7809582239096DF
S11305B08C93DF91CF911F910F91FF90EF90DF907B
S11305C0CF90BF90AF909F908F900895CF93DF937B
S11305D0EC0160938E008FE295E70197F1F700C07C
S11305E00000E985F0E030A181E090E0AC010B84EB
S11305F002C0440F551F0A94E2F7242F20952323A9
S113060020A3EC85F0E030A1AC010E8402C0440FBD
S1130610551F0A94E2F7242F2095232320A3EF8566
S1130620F0E030A1AC01098802C0440F551F0A94C0
S1130630E2F7242F2095232320A3EA89F0E030A1B8
S1130640AC010C8802C0440F551F0A94E2F7242F12
S11306502095232320A3EE81F0E030A1AC0108848F
S113066002C0440F551F0A94E2F7242F2095232338
S113067020A3EA85F0E040A19C010B8402C0220F74
S1130680331F0A94E2F7242B20A3ED85F0E040A168
S11306909C010E8402C0220F331F0A94E2F7242B1C
S11306A020A3E889F0E040A19C01098802C0220F40
S11306B0331F0A94E2F7242B20A3EB89F0E040A136
S11306C09C010C8802C0220F331F0A94E2F7242BEA
S11306D020A3EF81F0E040A19C01088402C0220F16
S11306E0331F0A94E2F7242B20A3E981F0E040A110
S11306F09C010A8002C0220F331F0A94E2F7242BC4
S113070020A3EC81F0E040A19C010D8002C0220FE7
S1130710331F0A94E2F7242B20A3E881F0E030A1F0
S1130720AC010A8002C0440F551F0A94E2F7242F3B
S11307302095232320A3EB81F0E030A1AC010D80B0
S113074002C0440F551F0A94E2F7242F2095232357
S113075020A3EA89F0E030A1AC010C8802C0440F68
S1130760551F0A94E2F7242F2095232320A3EF8515
S1130770F0E030A1AC01098802C0440F551F0A946F
S1130780E2F7242F2095232320A3EC85F0E040A159
S11307909C010E8402C0220F331F0A94E2F7242B1B
S11307A020A3E985F0E030A1AC010B8402C0440F22
S11307B0551F0A94E2F7242F2095232320A3EE81CA
S11307C0F0E040A19C01088402C0220F331F0A9468
S11307D0E2F7242B20A3EFECF7E03197F1F700C008
S11307E00000EE81F0E020A1088402C0880F991F68
S11307F00A94E2F78095822380A38FEC97E0019717
S1130800F1F700C0000028E240E060E0CE010E9461
S11308107400EFECF7E03197F1F700C000002CE032
S113082040E060E0CE010E9474008FEC97E00197F5
S1130830F1F700C0000026E040E060E0CE010E9435
S11308407400EFECF7E03197F1F700C00000DF919E
S1130850CF910895262F40E061E00E94740008952E
S11308600F931F93CF93DF93EB016881662341F0CD
S11308708C012196C8010E942A0469916111FACF62
S1130880DF91CF911F910F9108958F929F92AF9214
S1130890BF92CF92DF92EF92FF920F931F93CF9369
S11308A0DF935C01EB019B01329522952F70232786
S11308B03F702327A7E4B3E00E9418098C01169522
S11308C00795169507951695079520E137E2029F3F
S11308D0C001039F900D129F900D1124C81BD90BCA
S11308E09E01369527953695279536952795A5EC3F
S11308F0B0E20E9418096C01D694C794D694C794A8
S1130900D694C794D694C79428EE33E0C29EC0010F
S1130910C39E900DD29E900D1124C81BD90B9E012D
S11309203695279536952795ABE7B4E10E941809CB
S11309304C019694879424E6289DC001299D900D2E
S11309401124C81BD90B9E01ADECBCEC0E94180904
S11309507C01F694E794F694E794F694E79497016F
S1130960220F331FC701880F991F880F991F880F03
S1130970991F820F931FC81BD90B0115110591F400
S1130980C114D10479F48114910409F047C0E1142D
S1130990F10409F056C02097D9F560E3C5010E941F
S11309A02A0459C001151105C9F4C114D10409F46C
S11309B052C060E36C0DC5010E942A0460E3680D17
S11309C0C5010E942A0460E36E0DC5010E942A0439
S11309D06C2F605DC5010E942A043DC060E3600F76
S11309E0C5010E942A0460E36C0DC5010E942A041B
S11309F060E3680DC5010E942A0460E36E0DC50121
S1130A000E942A046C2F605DC5010E942A0423C041
S1130A106C2F605DC5010E942A041DC060E3680D4F
S1130A20C5010E942A0460E36E0DC5010E942A04D8
S1130A306C2F605DC5010E942A040115110559F04F
S1130A40CDCF60E36E0DC5010E942A046C2F605D5A
S1130A50C5010E942A04DF91CF911F910F91FF904D
S1130A60EF90DF90CF90BF90AF909F908F900895BC
S1130A702F923F924F925F926F927F928F929F92AA
S1130A80AF92BF92CF92DF92EF92FF920F931F9398
S1130A90CF93DF93CDB7DEB76C970FB6F894DEBF74
S1130AA00FBECDBF9C8F8B8F4A015B01790120E281
S1130AB03CEB4EEB5CE4C501B4010E94280888239A
S1130AC00CF05FC020E836E948E15BE4C501B401FD
S1130AD00E94280888230CF062C020E034E244E736
S1130AE059E4C501B4010E94280888230CF064C0AD
S1130AF020E030E543EC57E4C501B4010E94280826
S1130B0088230CF067C020E030E44CE156E4C501D2
S1130B10B4010E94280888230CF06AC020E030E069
S1130B204AE754E4C501B4010E94280888230CF064
S1130B306DC020E030E048EC52E4C501B4010E94ED
S1130B40280888230CF06FC020E030E040E251E434
S1130B50C501B4010E94280888230CF072C020E06B
S1130B6030E040E85FE3C501B4010E94280888230F
S1130B700CF074C01D8A1E8A1F8A188EC12CD12CB9
S1130B8078C080E091EEA5EFB5E08D8B9E8BAF8BA6
S1130B90B88F0F2EF9E0CF2ED12CF02D6AC080E84B
S1130BA096E9A8E9B0E08D8B9E8BAF8BB88F6894E3
S1130BB0CC24C3F8D12C5DC080E492E4AFE0B0E073
S1130BC08D8B9E8BAF8BB88F0F2EF7E0CF2ED12C51
S1130BD0F02D4FC080EA96E8A1E0B0E08D8B9E8BAB
S1130BE0AF8BB88F0F2EF6E0CF2ED12CF02D41C055
S1130BF080E197E2A0E0B0E08D8B9E8BAF8BB88F45
S1130C000F2EF5E0CF2ED12CF02D33C088EE93E0DB
S1130C10A0E0B0E08D8B9E8BAF8BB88F6894CC2412
S1130C20C2F8D12C26C084E690E0A0E0B0E08D8B21
S1130C309E8BAF8BB88F0F2EF3E0CF2ED12CF02DDF
S1130C4018C08AE090E0A0E0B0E08D8B9E8BAF8B63
S1130C50B88F6894CC24C1F8D12C0BC081E090E00B
S1130C60A0E0B0E08D8B9E8BAF8BB88FCC24C39467
S1130C70D12CE114F10439F4C501B4010E94D00768
S1130C802B013C017CC091E0E916F10469F420E0F9
S1130C9030E040E251E4C501B4010E942D080E94F5
S1130CA0D0072B013C016BC0A2E0EA16F10469F401
S1130CB020E030E048EC52E4C501B4010E942D0864
S1130CC00E94D0072B013C015AC0B3E0EB16F1049B
S1130CD069F420E030E04AE754E4C501B4010E941D
S1130CE02D080E94D0072B013C0149C0E4E0EE1618
S1130CF0F10469F420E030E44CE156E4C501B401A8
S1130D000E942D080E94D0072B013C0138C0F5E059
S1130D10EF16F10469F420E030E543EC57E4C50133
S1130D20B4010E942D080E94D0072B013C0127C06A
S1130D3086E0E816F10469F420E034E244E759E47B
S1130D40C501B4010E942D080E94D0072B013C016B
S1130D5016C0C501B4010E94D0072B013C010FC08D
S1130D601C141D040CF061C000E010E0D601AE19A3
S1130D70BF097D01898C9A8CAB8CBC8C3FC0FE0171
S1130D803196FA8FE98F1F0100E010E0C301B20130
S1130D902D893E894F89588D0E94F60849015A01D0
S1130DA0442755276D897E898F89988D0E94E6088E
S1130DB0461A570A680A790A6D897E898F89988D3F
S1130DC02AE030E040E050E00E94F6082D8B3E8B94
S1130DD04F8B588FFAE08F16910420F4D1018D9235
S1130DE09C9203C0F101118210820F5F1F4FF2E049
S1130DF02F0E311CC016D1064CF6B2CFE016F10608
S1130E0029F460E670E0C5010E943004D4016D91BC
S1130E107D914D016A30710518F4C5010E944504A5
S1130E200F5F1F4FC016D10649F76C960FB6F894A2
S1130E30DEBF0FBECDBFDF91CF911F910F91FF9009
S1130E40EF90DF90CF90BF90AF909F908F907F9066
S1130E506F905F904F903F902F90089541305105CF
S1130E6011F4605C7F4F262F206840E060E00E9410
S1130E7074008FEC97E00197F1F700C0000008952B
S1130E8080E38ABB8BBBE8E7F0E0D5E1D083C4E123
S1130E90C1831282D383C483DD24D394D582D683C1
S1130EA0C78382E08087D187C2870F2EF3E0EF2EBD
S1130EB0F02DE386D487C5876894FF24F2F8F6867C
S1130EC0D787C08B05E0018BD28BC38B16E0148BC4
S1130ED060E170E0CF010E94E6022FEF89E698E11D
S1130EE0215080409040E1F700C00000E2E6F0E0CD
S1130EF0D083C1831282D383C483D582D683C7832C
S1130F0087E08087D187C287E386D487C587F68642
S1130F10D787C08B018BD28BC38B148B60E170E0BD
S1130F20CF010E94E6028FEC97E00197F1F700C031
S1130F30000028EA40E060E088E790E00E94740046
S1130F4040E050E060E070E088E790E00E942E0707
S1130F5025E030E040E154E264E779E488E790E09A
S1130F600E94380541E050E061E070E088E790E0DD
S1130F700E942E076FEF7FE788E790E00E94450408
S1130F808FE39CE90197F1F700C00000D9CF88E70F
S1130F9090E00E94550082E690E00E94550008957A
S1130FA00E94070888F09F5798F0B92F9927B751E6
S1130FB0B0F0E1F0660F771F881F991F1AF0BA95F9
S1130FC0C9F714C0B13091F00E942108B1E008952E
S1130FD00C942108672F782F8827B85F39F0B93F20
S1130FE0CCF3869577956795B395D9F73EF49095AC
S1130FF08095709561957F4F8F4F9F4F089557FD52
S11310009058440F551F59F05F3F71F04795880F72
S113101097FB991F61F09F3F79F087950895121609
S113102013061406551FF2CF4695F1DF08C01616B5
S113103017061806991FF1CF869571056105089466
S11310400895E894BB2766277727CB0197F908957D
S11310500E949A0808F48FEF08950E9440080C94A7
S1131060D5080E94C70838F00E94CE0820F09523C6
S113107011F00C94BE080C94C40811240C9422089A
S11310800E94FF0770F3959FC1F3950F50E0551F21
S1131090629FF001729FBB27F00DB11D639FAA27C9
S11310A0F00DB11DAA1F649F6627B00DA11D661F18
S11310B0829F2227B00DA11D621F739FB00DA11D39
S11310C0621F839FA00D611D221F749F3327A00DF3
S11310D0611D231F849F600D211D822F762F6A2F8F
S11310E011249F5750409AF0F1F088234AF0EE0FF4
S11310F0FF1FBB1F661F771F881F91505040A9F721
S11311009E3F510580F00C94BE080C9422085F3F6A
S1131110E4F3983ED4F3869577956795B795F7955C
S1131120E7959F5FC1F7FE2B880F911D96958795D4
S113113097F90895990F0008550FAA0BE0E8FEEF00
S113114016161706E807F907C0F012161306E40787
S1131150F50798F0621B730B840B950B39F40A2680
S113116061F0232B242B252B21F408950A2609F45E
S1131170A140A6958FEF811D811D089597F99F6762
S113118080E870E060E008959FEF80EC089500240B
S11311900A941616170618060906089500240A94D8
S11311A012161306140605060895092E0394000C5E
S11311B011F4882352F0BB0F40F4BF2B11F460FFED
S11311C004C06F5F7F4F8F4F9F4F0895DB018F9354
S11311D09F930E942709BF91AF91A29F800D911DFB
S11311E0A39F900DB29F900D11240895A1E21A2E91
S11311F0AA1BBB1BFD010DC0AA1FBB1FEE1FFF1FB7
S1131200A217B307E407F50720F0A21BB30BE40B06
S1131210F50B661F771F881F991F1A9469F760954D
S11312207095809590959B01AC01BD01CF01089507
S1131230A29FB001B39FC001A39F700D811D112413
S1131240911DB29F700D811D1124911D08950E945E
S11312501809A59F900DB49F900DA49F800D911D1A
S113126011240895EE0FFF1F0590F491E02D0994C9
S1071270F894FFCF1C
S10512742E0046
S9030000FC
