S01000006D6C63645F4350552E737265632D
S11300000C942B000C9448000C9448000C94480069
S11300100C9448000C9448000C9448000C9448003C
S11300200C9448000C9448000C9448000C9448002C
S11300300C9448000C9448000C9448000C9448001C
S11300400C9448000C9448000C9448000C9448000C
S11300500C944800320411241FBECFE5D8E0DEBF63
S1130060CDBF20E0A0E6B0E001C01D92A637B207E4
S1130070E1F710E0CBE2D0E004C02197FE010E943A
S11300803704CA32D107C9F70E94CB030C943D044C
S11300900C940000FC019BE190838AE1818312822D
S11300A09383848321E025839683878322E02087BA
S11300B09187828723E023879487858724E0268796
S11300C09787808B25E0218B928B838B86E0848BB2
S11300D00895FC018FE295E70197F1F700C0000055
S11300E0A185B0E090963C91909781E090E0AC01BE
S11300F0038402C0440F551F0A94E2F7242F20956D
S1130100232390962C93A485B0E090963C919097ED
S1130110AC01068402C0440F551F0A94E2F7242F51
S11301202095232390962C93A785B0E090963C913C
S11301309097AC01018802C0440F551F0A94E2F75E
S1130140242F2095232390962C93A289B0E0909697
S11301503C919097AC01048802C0440F551F0A9447
S1130160E2F7242F2095232390962C93A681B0E0C8
S113017090963C919097AC01008402C0440F551FA7
S11301800A94E2F7242F2095232390962C93A2859A
S1130190B0E090964C9190979C01038402C0220F8A
S11301A0331F0A94E2F7242B90962C93A585B0E094
S11301B090964C9190979C01068402C0220F331FA5
S11301C00A94E2F7242B90962C93A089B0E09096A1
S11301D04C9190979C01018802C0220F331F0A940E
S11301E0E2F7242B90962C93A389B0E090964C913F
S11301F090979C01048802C0220F331F0A94E2F7EF
S1130200242B90962C93A781B0E090964C919097D4
S11302109C01008402C0220F331F0A94E2F7242BAE
S113022090962C93A181B0E090964C9190979C016C
S1130230028002C0220F331F0A94E2F7242B909607
S11302402C93A481B0E090964C9190979C010580EA
S113025002C0220F331F0A94E2F7242B90962C93AA
S1130260A081B0E090963C919097AC01028002C0CE
S1130270440F551F0A94E2F7242F209523239096C8
S11302802C93A381B0E090963C919097AC010580AB
S113029002C0440F551F0A94E2F7242F209523230C
S11302A090962C93A289B0E090963C919097AC01E3
S11302B0048802C0440F551F0A94E2F7242F2095A6
S11302C0232390962C93A785B0E090963C91909729
S11302D0AC01018802C0440F551F0A94E2F7242F91
S11302E02095232390962C93A485B0E090964C916E
S11302F090979C01068402C0220F331F0A94E2F7F0
S1130300242B90962C93A185B0E090963C919097E5
S1130310AC01038402C0440F551F0A94E2F7242F52
S11303202095232390962C93A681B0E090964C912F
S113033090979C01008402C0220F331F0A94E2F7B5
S1130340242B90962C93AFECB7E01197F1F700C0F3
S11303500000A681B0E090962C919097008402C092
S1130360880F991F0A94E2F78095822390968C93C4
S11303708FEC97E00197F1F700C0000008958F9289
S11303809F92AF92BF92CF92DF92EF92FF920F9320
S11303901F93CF93DF93FC01822F90E04C0195943F
S11303A08794EC01D595C795D595C7958C0115957E
S11303B0079515950795159507957C01F594E79490
S11303C0F594E794F594E794F594E7946C01D59447
S11303D0C794D594C794D594C794D594C794D59409
S11303E0C7945C010A2CAB2C000CAA1CBB08000CA3
S11303F0AA1CBB1C880F892F881F990B60FF11C092
S1130400A081B0E090963C91909761E070E002800A
S113041002C0660F771F0A94E2F7632B90966C93E1
S113042011C0A081B0E090963C91909761E070E09B
S1130430028002C0660F771F0A94E2F76095632377
S113044090966C9340FF11C0A381B0E090963C91CC
S1130450909741E050E0058002C0440F551F0A9474
S1130460E2F7432B90964C9311C0A381B0E0909691
S11304703C91909741E050E0058002C0440F551F25
S11304800A94E2F74095432390964C9380FF11C061
S1130490A289B0E090963C91909781E090E0048826
S11304A002C0880F991F0A94E2F7832B90968C93CD
S11304B011C0A289B0E090963C91909781E090E0C1
S11304C0048802C0880F991F0A94E2F78095832359
S11304D090968C93A0FE11C0A785B0E090963C91B5
S11304E0909781E090E0018802C0880F991F0A94D8
S11304F0E2F7832B90968C9311C0A785B0E0909679
S11305003C91909781E090E0018802C0880F991F88
S11305100A94E2F78095832390968C93C0FE11C0D1
S1130520A485B0E090963C91909781E090E0068499
S113053002C0880F991F0A94E2F7832B90968C933C
S113054011C0A485B0E090963C91909781E090E032
S1130550068402C0880F991F0A94E2F780958323CA
S113056090968C93E0FE11C0A185B0E090963C91EA
S1130570909781E090E0038402C0880F991F0A9449
S1130580E2F7832B90968C9311C0A185B0E09096EE
S11305903C91909781E090E0038402C0880F991FFA
S11305A00A94E2F78095832390968C93A681B0E019
S11305B090963C91909781E090E0AC01008402C059
S11305C0440F551F0A94E2F7432B90964C93AFECDB
S11305D0B7E01197F1F700C00000A681B0E0909653
S11305E03C919097008402C0880F991F0A94E2F707
S11305F08095832390968C938FEC97E00197F1F785
S113060000C0000000FF11C0A289B0E090963C91A8
S1130610909781E090E0048802C0880F991F0A94A3
S1130620E2F7832B90968C9311C0A289B0E0909648
S11306303C91909781E090E0048802C0880F991F54
S11306400A94E2F78095832390968C93C0FF11C09F
S1130650A785B0E090963C91909781E090E0018866
S113066002C0880F991F0A94E2F7832B90968C930B
S113067011C0A785B0E090963C91909781E090E0FE
S1130680018802C0880F991F0A94E2F7809583239A
S113069090968C9380FE11C0A485B0E090963C9116
S11306A0909781E090E0068402C0880F991F0A9415
S11306B0E2F7832B90968C9311C0A485B0E09096BA
S11306C03C91909781E090E0068402C0880F991FC6
S11306D00A94E2F78095832390968C9320FF11C0AF
S11306E0A185B0E090962C91909781E090E00384EE
S11306F002C0880F991F0A94E2F7822B90968C937C
S113070011C0A185B0E090962C91909781E090E083
S1130710038402C0880F991F0A94E2F7809582230C
S113072090968C93A681B0E090964C91909781E03E
S113073090E09C01008402C0220F331F0A94E2F768
S1130740242B90962C93AFECB7E01197F1F700C0EF
S11307500000A681B0E090962C919097008402C08E
S1130760880F991F0A94E2F78095822390968C93C0
S11307708FEC97E00197F1F700C00000DF91CF9173
S11307801F910F91FF90EF90DF90CF90BF90AF90AB
S11307909F908F900895E0E6F0E095E1908384E1E6
S11307A0818312829383848321E0258396838783C4
S11307B022E020879187828723E023879487858797
S11307C024E026879787808B25E0218B928B838B6F
S11307D086E0848BCF010E94690020E240E060E063
S11307E080E690E00E94BF018FE19EE40197F1F75B
S11307F000C000002EE040E060E080E690E00E944F
S1130800BF018FE19EE40197F1F700C0000026E0EC
S113081040E060E080E690E00E94BF018FE19EE44A
S11308200197F1F700C0000028E440E061E080E6B1
S113083090E00E94BF018FE19EE40197F1F700C0B0
S1130840000028E440E061E080E690E00E94BF01FF
S11308509FEF29E688E1915020408040E1F700C0F5
S11308600000EFCF80E690E00E944A000895EE0F6A
S1110870FF1F0590F491E02D0994F894FFCF3A
S9030000FC
